:02000000A42B2F
:10000600403083120313F0001F30F100F201F301B8
:020016000800E0
:1000180083120313BA03BA033A08003C03181928D9
:10002800BA030000000000001028000000000000D3
:06003800000000000800BA
:10003E00831203132230FC00F801F901FA01FB01CF
:10004E00FC03031955280310FB0CFA0CF90CF80CE1
:10005E00F30CF20CF10CF00C031C2728FC03031913
:10006E0047287408F80775080318750FF9077608FE
:10007E000318760FFA0777080318770FFB072B285C
:10008E007408F80775080318750FF9077608031832
:0E009E00760FFA0777080318770FFB070800A4
:1000AC0083120313F801F9011030FC00710DF80DE7
:1000BC00F90D7408F8027508031C750FF902031882
:1000CC006E287408F80775080318750FF9070310E4
:0A00DC00F00DF10DFC0B5C2808008C
:1000E60083120313FB01FA01F901F801A001730D54
:1000F600F80D7408F8027508031C750FF9027608E6
:10010600031C760FFA027708031C770FFB02000127
:10011600031C0130A002F30D0730FC00730DF80D2F
:10012600F90DFA0DFB0DA00D7408731CAC28F8022E
:100136007508031C750FF9027608031C760FFA0280
:100146007708031C770FFB020001031C0130A00295
:10015600BD28F80775080318750FF9077608031800
:10016600760FFA0777080318770FFB0700010318C5
:100176000130A007F30DFC0B9128720DF80DF90D57
:10018600FA0DFB0DA00D7408731CDB28F802750828
:10019600031C750FF9027608031C760FFA0277081E
:1001A600031C770FFB020001031C0130A002EC28A0
:1001B600F80775080318750FF90776080318760F00
:1001C600FA0777080318770FFB07000103180130B9
:1001D600A007F20D0730FC00720DF80DF90DFA0DAF
:1001E600FB0DA00D7408721C0A29F8027508031C81
:1001F600750FF9027608031C760FFA027708031CBE
:10020600770FFB020001031C0130A0021B29F8072F
:1002160075080318750FF90776080318760FFA079D
:1002260077080318770FFB07000103180130A007B2
:10023600F20DFC0BEF28710DF80DF90DFA0DFB0D03
:10024600A00D7408721C3929F8027508031C750F75
:10025600F9027608031C760FFA027708031C770F5B
:10026600FB020001031C0130A0024A29F8077508A9
:100276000318750FF90776080318760FFA0777083B
:100286000318770FFB07000103180130A007F10DD3
:100296000730FC00710DF80DF90DFA0DFB0DA00DE0
:1002A6007408711C6829F8027508031C750FF90299
:1002B6007608031C760FFA027708031C770FFB02F9
:1002C6000001031C0130A0027929F80775080318FC
:1002D600750FF90776080318760FFA0777080318DB
:1002E600770FFB07000103180130A007F10DFC0B87
:1002F6004D29700DF80DF90DFA0DFB0DA00D7408C2
:10030600711C9729F8027508031C750FF902760807
:10031600031C760FFA027708031C770FFB02000115
:10032600031C0130A002A829F80775080318750FE9
:10033600F90776080318760FFA0777080318770F78
:10034600FB07000103180130A007F00D0730FC0081
:10035600700DF80DF90DFA0DFB0DA00D7408701C4B
:10036600C629F8027508031C750FF9027608031CE6
:10037600760FFA027708031C770FFB020001031CB5
:100386000130A002D729F80775080318750FF90779
:1003960076080318760FFA0777080318770FFB0716
:1003A600000103180130A007F00DFC0BAB297018F3
:1003B600EA297408F80775080318750FF90776080F
:1003C6000318760FFA0777080318770FFB0708005C
:1003D6000320E830F4000330F500F601F7011F2092
:1003E6007008B6007108B7007208B8007308B90043
:1003F6002E08F4002F08F500F601F70173207008A7
:10040600B6007108B7007208B8007308B900700822
:10041600F5007108F6007208F7007308F800F80C8A
:10042600F70CF60CF50CF813F80CF70CF60CF50CAB
:10043600F8137508F0007608F1007708F2007808DE
:10044600F300F30CF20CF10CF00CF3137008B2008D
:100456007108B30003203008F4003108F500F601F6
:10046600F7011F203208F9003308FA00FB01FC01EE
:100476000330F8007908F4007A08F5007B08F600E6
:100486007C08F700780803194F2AF40DF50DF60DD0
:10049600F70D7410FF3E462A73207008B6007108E7
:1004A600B7007208B8007308B9000A30F4000030CB
:1004B600F5003208F0003308F10056207008B2004B
:1004C6007108B30000307102031D6B2A03307002FD
:1004D60003186E2ABB2A230884003908003C031D32
:1004E6007E2A3808003C031D7E2A3708003C031D7F
:1004F6007E2A3608003C0318B92A210880043308EE
:100506000319952AB401B50100303502031D8D2A61
:10051600330834020318952ABA010C20B40A0319C9
:10052600B50A872A3208BA000C202208800533084B
:100536000319AD2AB401B50100303502031DA52A01
:10054600330834020318AD2ABA010C20B40A031981
:10055600B50A9F2A3208BA000C200130B602031CE5
:10056600B702031CB802031CB902702A22088005D0
:0205760008007B
:10057800831203132A08AE002B08AF002C08B00022
:080588002D08B100EB21080071
:10059000C83083120313AA00AB019630AC00AD0142
:1005A000BC229630AA00AB019630AC00AD01BC2253
:1005B0006430AA000030AB002C30AC000130AD003C
:0405C000BC22080051
:1005C4000B3083120313AA000230AB009630AC0048
:1005D400AD01BC220B30AA000230AB009630AC0057
:1005E400AD01BC220B30AA000230AB009630AC0047
:1005F400AD01BC229330AA000230AB009030AC00B5
:080604000130AD00BC2208002A
:10060C00063083120313AA000130AB007830AC0023
:10061C000030AD00BC224A30AA000130AB0078306B
:10062C00AC000030AD00BC228830AA000130AB0019
:10063C007830AC000030AD00BC220B30AA00023088
:0C064C00AB00C830AC00AD01BC220800BF
:100658005E2B802B063083120313AA000130AB00F7
:100668009030AC000130AD00BC22802B4A30AA008B
:100678000130AB009030AC000130AD00BC22802BC3
:100688008830AA000130AB009030AC000130AD00DA
:10069800BC22802B0B30AA000230AB009030AC009B
:1006A8000130AD00BC22802B0623802BE222802B58
:1006B800C822802B831203132808003A03192D2B14
:1006C8002808013A03192E2B2808023A03193A2B55
:1006D8002808033A0319442B2808043A03194E2B17
:1006E8002808053A0319582B2808063A03195A2BE3
:0A06F8002808073A03195C2B0800DC
:0C0702000730831203130605F000080006
:10070E00831203132808A3002908F1000130F0001A
:10071E0071080319962BF00D7010FF3E902B700888
:10072E00A100F0097008A20080302807840070082C
:0A073E008005841370088005080090
:1007480083120313A701FF30831686008701073041
:100758008312A8000230A9008723003086190130CF
:10076800A60026080319BF2B2708031DBF2B8123CA
:100778007008A8002C23831203132608A700B12BA6
:02078800C42B80
:02400E007A3BFB
:00000001FF
