:02000000D22B01
:10000600403083120313F0001F30F100F201F301B8
:020016000800E0
:10001800831203132230FC00F801F901FA01FB01F5
:10002800FC03031942280310FB0CFA0CF90CF80C1A
:10003800F30CF20CF10CF00C031C1428FC0303194C
:1000480034287408F80775080318750FF907760837
:100058000318760FFA0777080318770FFB07182895
:100068007408F80775080318750FF9077608031858
:0E007800760FFA0777080318770FFB070800CA
:1000860083120313FB01FA01F901F801A001730DB4
:10009600F80D7408F8027508031C750FF902760846
:1000A600031C760FFA027708031C770FFB02000188
:1000B600031C0130A002F30D0730FC00730DF80D90
:1000C600F90DFA0DFB0DA00D7408731C7C28F802BF
:1000D6007508031C750FF9027608031C760FFA02E1
:1000E6007708031C770FFB020001031C0130A002F6
:1000F6008D28F80775080318750FF9077608031891
:10010600760FFA0777080318770FFB070001031825
:100116000130A007F30DFC0B6128720DF80DF90DE7
:10012600FA0DFB0DA00D7408731CAB28F8027508B8
:10013600031C750FF9027608031C760FFA0277087E
:10014600031C770FFB020001031C0130A002BC2830
:10015600F80775080318750FF90776080318760F60
:10016600FA0777080318770FFB0700010318013019
:10017600A007F20D0730FC00720DF80DF90DFA0D0F
:10018600FB0DA00D7408721CDA28F8027508031C12
:10019600750FF9027608031C760FFA027708031C1E
:1001A600770FFB020001031C0130A002EB28F807C1
:1001B60075080318750FF90776080318760FFA07FE
:1001C60077080318770FFB07000103180130A00713
:1001D600F20DFC0BBF28710DF80DF90DFA0DFB0D94
:1001E600A00D7408721C0929F8027508031C750F06
:1001F600F9027608031C760FFA027708031C770FBC
:10020600FB020001031C0130A0021A29F807750839
:100216000318750FF90776080318760FFA0777089B
:100226000318770FFB07000103180130A007F10D33
:100236000730FC00710DF80DF90DFA0DFB0DA00D40
:100246007408711C3829F8027508031C750FF90229
:100256007608031C760FFA027708031C770FFB0259
:100266000001031C0130A0024929F807750803188C
:10027600750FF90776080318760FFA07770803183B
:10028600770FFB07000103180130A007F10DFC0BE7
:100296001D29700DF80DF90DFA0DFB0DA00D740852
:1002A600711C6729F8027508031C750FF902760898
:1002B600031C760FFA027708031C770FFB02000176
:1002C600031C0130A0027829F80775080318750F7A
:1002D600F90776080318760FFA0777080318770FD9
:1002E600FB07000103180130A007F00D0730FC00E2
:1002F600700DF80DF90DFA0DFB0DA00D7408701CAC
:100306009629F8027508031C750FF9027608031C76
:10031600760FFA027708031C770FFB020001031C15
:100326000130A002A729F80775080318750FF90709
:1003360076080318760FFA0777080318770FFB0776
:10034600000103180130A007F00DFC0B7B29701883
:10035600BA297408F80775080318750FF90776089F
:100366000318760FFA0777080318770FFB070800BC
:1003760083120313F801F9011030FC00710DF80D1A
:10038600F90D7408F8027508031C750FF9020318B5
:10039600D3297408F80775080318750FF9070310B1
:0A03A600F00DF10DFC0BC129080059
:1003B00083120313B603B6033608003C0318E5297D
:1003C000B603000000000000DC290000000000006F
:0603D0000000000008001F
:0E03D6008312031326088A00250882000800FF
:1003E4000320E830F4000330F500F601F7010C2097
:1003F4007008B2007108B3007208B4007308B50045
:100404002A08F4002B08F500F601F70143207008D0
:10041400B2007108B3007208B4007308B500700824
:10042400F5007108F6007208F7007308F800F80C7C
:10043400F70CF60CF50CF813F80CF70CF60CF50C9D
:10044400F8137508F0007608F1007708F2007808D0
:10045400F300F30CF20CF10CF00CF3137008AE0083
:100464007108AF0003202C08F4002D08F500F601F4
:10047400F7010C202E08F9002F08FA00FB01FC01FB
:100484000330F8007908F4007A08F5007B08F600D8
:100494007C08F70078080319562AF40DF50DF60DBB
:1004A400F70D7410FF3E4D2A43207008B200710806
:1004B400B3007208B4007308B5000A30F4000030C9
:1004C400F5002E08F0002F08F100BB217008AE00E3
:1004D4007108AF0000307102031D722A03307002EC
:1004E4000318752AC22A220884003508003C031D1B
:1004F400852A3408003C031D852A3308003C031D6B
:10050400852A3208003C0318C02A230880042F08D7
:1005140003199C2AB001B10100303102031D942A51
:100524002F08300203189C2AB601D821B00A0319F7
:10053400B10A8E2A2E08B600D821240880052F0877
:100544000319B42AB001B10100303102031DAC2AF1
:100554002F0830020318B42AB601D821B00A0319AF
:10056400B10AA62A2E08B600D8210130B202031C13
:10057400B302031CB402031CB502772A24088005C5
:0205840008006D
:10058600BC3083120313AA000230AB006430AC0007
:080596000030AD00F221080065
:10059E00B03083120313AA000430AB006430AC00F9
:0805AE000030AD00F22108004D
:1005B600903083120313AA000130AB006430AC0004
:0805C6000030AD00F221080035
:1005CE00E83083120313AA000330AB006430AC0092
:1005DE000030AD00F2210230FB003830FC00AD30AF
:1005EE00FD00FD0BF82AFC0BF82AFB0BF82AE8306D
:1005FE00AA000330AB006430AC000030AD00F22135
:02060E000800E2
:100610000B3083120313AA000230AB009630AC00FB
:10062000AD01F2210230FB00D430FC008530FD002A
:10063000FD0B182BFC0B182BFB0B182B9330AA006F
:100640000230AB009630AC00AD01F2210230FB006D
:10065000D430FC008530FD00FD0B2C2BFC0B2C2B2B
:10066000FB0B2C2B1030AA000330AB00C830AC00C1
:06067000AD01F2210800BB
:10067600831203132808A2002908F1000130F000B4
:10068600710803194A2BF00D7010FF3E442B7008B9
:10069600A300F0097008A4008030280784007008C1
:0A06A6008005841370088005080029
:1006B0000B3083120313AA000230AB006430AC008D
:1006C0000030AD00F2210230FB003830FC00AD30CC
:1006D000FD00FD0B692BFC0B692BFB0B692B933089
:1006E000AA000230AB006430AC000030AD00F22153
:1006F0000230FB003830FC00AD30FD00FD0B7E2BDE
:10070000FC0B7E2BFB0B7E2B1030AA000330AB00C2
:100710006430AC000030AD00F2210230FB00383014
:10072000FC00AD30FD00FD0B932BFC0B932BFB0B62
:10073000932B1630AA000430AB002C30AC000130F3
:06074000AD00F2210800EB
:10074600FA3083120313AA00AB01F430AC00013077
:06075600AD00F2210800D5
:10075C00E83083120313AA000330AB006430AC0002
:08076C000030AD00F22108008D
:10077400783083120313AA000530AB006430AC0058
:080784000030AD00F221080075
:10078C00EB218A110A128000840AA50A0319A60A11
:08079C00F003031DC62B080049
:1007A40083120313A1018316031788018901FF3003
:1007B40086000313071107308312A8000230A90032
:1007C4003B230F300605F1007108A70071082106CC
:1007D4000319252CFF2B0823232CE722232CA323E6
:1007E400232C5823232CDB22232CC322232CAE239B
:1007F400232CCF22232CBA23232C2708013A0319B4
:10080400ED2B2708023A0319EF2B2708033A0319A3
:10081400F12B2708043A0319F32B2708053A031987
:10082400F52B2708063A0319F72B2708073A03196B
:10083400F92B2708083A0319FB2B2708093A03194F
:0A084400FD2B2708A100E32B262C52
:04400E00F22F000786
:00000001FF
